:100000000C9434000C943E000C943E000C943E0082
:100010000C943E000C943E000C943E000C943E0068
:100020000C943E000C943E000C943E000C943E0058
:100030000C943E000C943E000C943E000C943E0048
:100040000C943E000C943E000C943E000C943E0038
:100050000C943E000C943E000C943E000C943E0028
:100060000C943E000C943E0011241FBECFEFD8E04C
:10007000DEBFCDBF0E9453040C9428050C940000F1
:100080001092C50082E28093C400E0ECF0E0808131
:100090008260808388E18093C100519A0895909195
:1000A000C00095FFFCCF8093C6000895CF93DF93E7
:1000B000CDB7DEB728970FB6F894DEBF0FBECDBF21
:1000C0009C0197FD12C0892BD1F48091C00085FF5F
:1000D000FCCF80E38093C60028960FB6F894DEBF6D
:1000E0000FBECDBFDF91CF9108959091C00095FFD5
:1000F000FCCF8DE28093C600319521953109EAE06D
:10010000F0E0C901BF010E940005805D898361158F
:10011000710581F1CB01BF010E940005805D8A83DA
:100120006115710559F1CB01BF010E940005805D89
:100130008B836115710531F1CB01BF010E94000570
:10014000805D8C836115710509F1605D6D83E4E06C
:10015000F0E031969E012F5F3F4FE20FF31F929127
:100160008091C00085FFFCCF9093C600E217F30793
:10017000B1F7B2CFE1E0F0E03197EBCFE2E0F0E0B1
:100180003197E7CFE3E0F0E03197E3CFE4E0F0E050
:100190003197DFCF9B0194EA9093BC009091BC0013
:1001A00097FFFCCF8093BB0084E88093BC008091D4
:1001B000BC0087FFFCCF4423B1F0415050E04F5FBB
:1001C0005F4F420F531F94E8F90180812F5F3F4F2B
:1001D0008093BB009093BC008091BC0087FFFCCF54
:1001E0002417350789F784E98093BC008091BC000F
:1001F00084FDFCCF089594EA9093BC009091BC00DC
:1002000097FFFCCF8093BB0084E88093BC00809173
:10021000BC0087FFFCCF6093BB0084E88093BC00E8
:100220008091BC0087FFFCCF4093BB0084E88093A3
:10023000BC008091BC0087FFFCCF84E98093BC00A8
:100240008091BC0084FDFCCF0895FA0194EA90935C
:10025000BC009091BC0097FFFCCF8093BB0094E85A
:100260009093BC009091BC0097FFFCCF6093BB00C3
:1002700094E89093BC009091BC0097FFFCCF94EA67
:100280009093BC009091BC0097FFFCCF816080935D
:10029000BB0084E88093BC008091BC0087FFFCCF4A
:1002A000213029F12250A22FB0E01196AE0FBF1FCE
:1002B00094EC9093BC008091BC0087FFFCCF8091B0
:1002C000BB008193EA17FB07A1F784E88093BC0089
:1002D0008091BC0087FFFCCF8091BB008C9384E9A8
:1002E0008093BC008091BC0084FDFCCF0895DF01A9
:1002F000ECCFCF93DF93CDB7DEB72E970FB6F89440
:10030000DEBF0FBECDBFFC0184EA8093BC008091AC
:10031000BC0087FFFCCF80ED8093BB0084E8809316
:10032000BC008091BC0087FFFCCF8BE38093BB00B7
:1003300084E88093BC008091BC0087FFFCCF84EAF6
:100340008093BC008091BC0087FFFCCF81ED80933F
:10035000BB0084E88093BC008091BC0087FFFCCF89
:10036000DE0111969E01225F3F4F84EC8093BC001A
:100370009091BC0097FFFCCF9091BB009D93A2177A
:10038000B307A1F784E88093BC008091BC0087FF8D
:10039000FCCF8091BB008E8784E98093BC00809164
:1003A000BC0084FDFCCF89819A81982789279827F2
:1003B000918380838B819C819827892798279383B9
:1003C00082838D819E8198278927982795838483AE
:1003D00089859A85982789279827978386838B858F
:1003E0009C85982789279827918780878D859E856A
:1003F000982789279827938782872E960FB6F89497
:10040000DEBF0FBECDBFDF91CF91089584EA809308
:10041000BC008091BC0087FFFCCF80ED8093BB00C7
:1004200084E88093BC008091BC0087FFFCCF8AE306
:100430008093BB0084E88093BC008091BC0087FF60
:10044000FCCF84EA8093BC008091BC0087FFFCCF86
:1004500081ED8093BB0084E88093BC008091BC0058
:1004600087FFFCCF84E88093BC008091BC0087FFAD
:10047000FCCF8091BB0094E99093BC009091BC00AC
:1004800094FDFCCF8170089594EA9093BC00909104
:10049000BC0097FFFCCF90ED9093BB0094E8909345
:1004A000BC009091BC0097FFFCCF9BE69093BB00F3
:1004B00094E89093BC009091BC0097FFFCCF91E032
:1004C0009093BB0094E89093BC009091BC0097FF80
:1004D000FCCF94E99093BC009091BC0094FDFCCFBC
:1004E00094EA9093BC009091BC0097FFFCCF90EDF4
:1004F0009093BB0094E89093BC009091BC0097FF50
:10050000FCCF9AE19093BB0094E89093BC0090914B
:10051000BC0097FFFCCF93E09093BB0094E89093CE
:10052000BC009091BC0097FFFCCF94E99093BC0075
:100530009091BC0094FDFCCF94EA9093BC00909104
:10054000BC0097FFFCCF90ED9093BB0094E8909394
:10055000BC009091BC0097FFFCCF99E19093BB0049
:1005600094E89093BC009091BC0097FFFCCF94E07E
:100570009093BB0094E89093BC009091BC0097FFCF
:10058000FCCF94E99093BC009091BC0094FDFCCF0B
:1005900094EA9093BC009091BC0097FFFCCF90ED43
:1005A0009093BB0094E89093BC009091BC0097FF9F
:1005B000FCCF9BE19093BB0094E89093BC0090919A
:1005C000BC0097FFFCCF94EA9093BC009091BC00D4
:1005D00097FFFCCF91ED9093BB0094E89093BC0003
:1005E0009091BC0097FFFCCF94E89093BC00909151
:1005F000BC0097FFFCCF9091BB0024E92093BC0086
:100600002091BC0024FDFCCF292F2F7134EA3093B8
:10061000BC003091BC0037FFFCCF30ED3093BB0005
:1006200034E83093BC003091BC0037FFFCCF3BE195
:100630003093BB0034E83093BC003091BC0037FFEE
:10064000FCCF2093BB0024E82093BC002091BC0089
:1006500027FFFCCF24E92093BC002091BC0024FD9F
:10066000FCCF292F277E34EA3093BC003091BC00A8
:1006700037FFFCCF30ED3093BB0034E83093BC0043
:100680003091BC0037FFFCCF3BE13093BB0034E836
:100690003093BC003091BC0037FFFCCF2093BB00EF
:1006A00024E82093BC002091BC0027FFFCCF24E964
:1006B0002093BC002091BC0024FDFCCF660F660F88
:1006C000660F692B94EA9093BC009091BC0097FF51
:1006D000FCCF90ED9093BB0094E89093BC00909178
:1006E000BC0097FFFCCF9BE19093BB0094E89093F4
:1006F000BC009091BC0097FFFCCF6093BB0094E8D6
:100700009093BC009091BC0097FFFCCF94E990932C
:10071000BC009091BC0094FDFCCF94EA9093BC0087
:100720009091BC0097FFFCCF90ED9093BB0094E8B4
:100730009093BC009091BC0097FFFCCF9CE19093FC
:10074000BB0094E89093BC009091BC0097FFFCCF55
:1007500094EA9093BC009091BC0097FFFCCF91ED80
:100760009093BB0094E89093BC009091BC0097FFDD
:10077000FCCF94E89093BC009091BC0097FFFCCF15
:100780009091BB0024E92093BC002091BC0024FD83
:10079000FCCF292F2F7134EA3093BC003091BC007C
:1007A00037FFFCCF30ED3093BB0034E83093BC0012
:1007B0003091BC0037FFFCCF3CE13093BB0034E804
:1007C0003093BC003091BC0037FFFCCF2093BB00BE
:1007D00024E82093BC002091BC0027FFFCCF24E933
:1007E0002093BC002091BC0024FDFCCF292F277E44
:1007F00034EA3093BC003091BC0037FFFCCF30EDC1
:100800003093BB0034E83093BC003091BC0037FF1C
:10081000FCCF3CE13093BB0034E83093BC00309116
:10082000BC0037FFFCCF2093BB0024E82093BC0022
:100830002091BC0027FFFCCF24E92093BC0020912D
:10084000BC0024FDFCCF880F880F880F892B94EA09
:100850009093BC009091BC0097FFFCCF90ED9093DB
:10086000BB0094E89093BC009091BC0097FFFCCF34
:100870009CE19093BB0094E89093BC009091BC00E5
:1008800097FFFCCF8093BB0084E88093BC008091ED
:10089000BC0087FFFCCF84E98093BC008091BC0042
:1008A00084FDFCCF0895CDB7DEB72C97DEBFCDBF5A
:1008B0001092C50082E28093C4008091C0008260E3
:1008C0008093C00088E18093C100519A8091C0005C
:1008D00085FFFCCF82E58093C6008091C00085FF34
:1008E000FCCF8AE08093C6001092B90088E4809320
:1008F000B80060E083E00E94440204EA80EDC82E64
:1009000014E89AE3D92E21EDE22E34E9F32E40E2E9
:10091000B42E5AE0A52E0093BC008091BC0087FF46
:10092000FCCFC092BB001093BC008091BC0087FF3D
:10093000FCCFD092BB001093BC008091BC0087FF1D
:10094000FCCF0093BC008091BC0087FFFCCFE092FD
:10095000BB001093BC008091BC0087FFFCCF1093BC
:10096000BC008091BC0087FFFCCF9091BB00F0924F
:10097000BC008091BC0084FDFCCF90FFCCCFCE01A9
:1009800001960E94790189819A810E945600809186
:10099000C00085FFFCCFB092C6008B819C810E9475
:1009A00056008091C00085FFFCCFB092C6008D81BB
:1009B0009E810E9456008091C00085FFFCCFB092BE
:1009C000C6008F8198850E9456008091C00085FFE7
:1009D000FCCFB092C60089859A850E94560080910E
:1009E000C00085FFFCCFB092C6008B859C850E941D
:1009F00056008091C00085FFFCCFA092C6008BCF2F
:100A000097FB072E16F4009407D077FD09D00E94BB
:100A1000140507FC05D03EF4909581959F4F0895ED
:100A2000709561957F4F0895AA1BBB1B51E107C0CC
:100A3000AA1FBB1FA617B70710F0A61BB70B881F6E
:100A4000991F5A95A9F780959095BC01CD010895FD
:040A5000F894FFCF48
:00000001FF
